{
  "contractName": "Lottery",
  "abi": [
    {
      "inputs": [],
      "stateMutability": "nonpayable",
      "type": "constructor"
    },
    {
      "anonymous": false,
      "inputs": [
        {
          "indexed": false,
          "internalType": "uint256",
          "name": "index",
          "type": "uint256"
        },
        {
          "indexed": true,
          "internalType": "address",
          "name": "bettor",
          "type": "address"
        },
        {
          "indexed": false,
          "internalType": "uint256",
          "name": "amount",
          "type": "uint256"
        },
        {
          "indexed": false,
          "internalType": "bytes1",
          "name": "challenges",
          "type": "bytes1"
        },
        {
          "indexed": false,
          "internalType": "uint256",
          "name": "answerBlockNumber",
          "type": "uint256"
        }
      ],
      "name": "BET",
      "type": "event"
    },
    {
      "anonymous": false,
      "inputs": [
        {
          "indexed": false,
          "internalType": "uint256",
          "name": "index",
          "type": "uint256"
        },
        {
          "indexed": false,
          "internalType": "address",
          "name": "bettor",
          "type": "address"
        },
        {
          "indexed": false,
          "internalType": "uint256",
          "name": "amount",
          "type": "uint256"
        },
        {
          "indexed": false,
          "internalType": "bytes1",
          "name": "challenges",
          "type": "bytes1"
        },
        {
          "indexed": false,
          "internalType": "bytes1",
          "name": "answer",
          "type": "bytes1"
        },
        {
          "indexed": false,
          "internalType": "uint256",
          "name": "answerBlockNumber",
          "type": "uint256"
        }
      ],
      "name": "DRAW",
      "type": "event"
    },
    {
      "anonymous": false,
      "inputs": [
        {
          "indexed": false,
          "internalType": "uint256",
          "name": "index",
          "type": "uint256"
        },
        {
          "indexed": false,
          "internalType": "address",
          "name": "bettor",
          "type": "address"
        },
        {
          "indexed": false,
          "internalType": "uint256",
          "name": "amount",
          "type": "uint256"
        },
        {
          "indexed": false,
          "internalType": "bytes1",
          "name": "challenges",
          "type": "bytes1"
        },
        {
          "indexed": false,
          "internalType": "bytes1",
          "name": "answer",
          "type": "bytes1"
        },
        {
          "indexed": false,
          "internalType": "uint256",
          "name": "answerBlockNumber",
          "type": "uint256"
        }
      ],
      "name": "FAIL",
      "type": "event"
    },
    {
      "anonymous": false,
      "inputs": [
        {
          "indexed": false,
          "internalType": "uint256",
          "name": "index",
          "type": "uint256"
        },
        {
          "indexed": false,
          "internalType": "address",
          "name": "bettor",
          "type": "address"
        },
        {
          "indexed": false,
          "internalType": "uint256",
          "name": "amount",
          "type": "uint256"
        },
        {
          "indexed": false,
          "internalType": "bytes1",
          "name": "challenges",
          "type": "bytes1"
        },
        {
          "indexed": false,
          "internalType": "uint256",
          "name": "answerBlockNumber",
          "type": "uint256"
        }
      ],
      "name": "REFUND",
      "type": "event"
    },
    {
      "anonymous": false,
      "inputs": [
        {
          "indexed": false,
          "internalType": "uint256",
          "name": "index",
          "type": "uint256"
        },
        {
          "indexed": false,
          "internalType": "address",
          "name": "bettor",
          "type": "address"
        },
        {
          "indexed": false,
          "internalType": "uint256",
          "name": "amount",
          "type": "uint256"
        },
        {
          "indexed": false,
          "internalType": "bytes1",
          "name": "challenges",
          "type": "bytes1"
        },
        {
          "indexed": false,
          "internalType": "bytes1",
          "name": "answer",
          "type": "bytes1"
        },
        {
          "indexed": false,
          "internalType": "uint256",
          "name": "answerBlockNumber",
          "type": "uint256"
        }
      ],
      "name": "WIN",
      "type": "event"
    },
    {
      "inputs": [],
      "name": "answerForTest",
      "outputs": [
        {
          "internalType": "bytes32",
          "name": "",
          "type": "bytes32"
        }
      ],
      "stateMutability": "view",
      "type": "function",
      "constant": true
    },
    {
      "inputs": [],
      "name": "owner",
      "outputs": [
        {
          "internalType": "address payable",
          "name": "",
          "type": "address"
        }
      ],
      "stateMutability": "view",
      "type": "function",
      "constant": true
    },
    {
      "inputs": [],
      "name": "getPot",
      "outputs": [
        {
          "internalType": "uint256",
          "name": "pot",
          "type": "uint256"
        }
      ],
      "stateMutability": "view",
      "type": "function",
      "constant": true
    },
    {
      "inputs": [
        {
          "internalType": "bytes1",
          "name": "challenges",
          "type": "bytes1"
        }
      ],
      "name": "betAndDistribute",
      "outputs": [
        {
          "internalType": "bool",
          "name": "result",
          "type": "bool"
        }
      ],
      "stateMutability": "payable",
      "type": "function",
      "payable": true
    },
    {
      "inputs": [
        {
          "internalType": "bytes1",
          "name": "challenges",
          "type": "bytes1"
        }
      ],
      "name": "bet",
      "outputs": [
        {
          "internalType": "bool",
          "name": "result",
          "type": "bool"
        }
      ],
      "stateMutability": "payable",
      "type": "function",
      "payable": true
    },
    {
      "inputs": [],
      "name": "distribute",
      "outputs": [],
      "stateMutability": "nonpayable",
      "type": "function"
    },
    {
      "inputs": [
        {
          "internalType": "bytes32",
          "name": "answer",
          "type": "bytes32"
        }
      ],
      "name": "setAnswerForTest",
      "outputs": [
        {
          "internalType": "bool",
          "name": "result",
          "type": "bool"
        }
      ],
      "stateMutability": "nonpayable",
      "type": "function"
    },
    {
      "inputs": [
        {
          "internalType": "bytes1",
          "name": "challenges",
          "type": "bytes1"
        },
        {
          "internalType": "bytes32",
          "name": "answer",
          "type": "bytes32"
        }
      ],
      "name": "isMatch",
      "outputs": [
        {
          "internalType": "enum Lottery.BettingResult",
          "name": "",
          "type": "uint8"
        }
      ],
      "stateMutability": "pure",
      "type": "function",
      "constant": true
    },
    {
      "inputs": [
        {
          "internalType": "uint256",
          "name": "index",
          "type": "uint256"
        }
      ],
      "name": "getBetInfo",
      "outputs": [
        {
          "internalType": "uint256",
          "name": "answerBlockNumber",
          "type": "uint256"
        },
        {
          "internalType": "address",
          "name": "bettor",
          "type": "address"
        },
        {
          "internalType": "bytes1",
          "name": "challenges",
          "type": "bytes1"
        }
      ],
      "stateMutability": "view",
      "type": "function",
      "constant": true
    }
  ],
  "bytecode": "0x60806040526000600660006101000a81548160ff02191690831515021790555034801561002b57600080fd5b5033600360006101000a81548173ffffffffffffffffffffffffffffffffffffffff021916908373ffffffffffffffffffffffffffffffffffffffff1602179055506118308061007c6000396000f3fe6080604052600436106100865760003560e01c80638da5cb5b116100595780638da5cb5b1461015d57806399a167d714610188578063e16ea857146101c5578063e4fc6b6d146101f5578063f4b46f5b1461020c57610086565b8063403c9fa81461008b5780637009fa36146100b657806379141f80146100f357806384f7e4f014610132575b600080fd5b34801561009757600080fd5b506100a061023c565b6040516100ad9190611004565b60405180910390f35b3480156100c257600080fd5b506100dd60048036038101906100d8919061105a565b610246565b6040516100ea91906110a2565b60405180910390f35b3480156100ff57600080fd5b5061011a600480360381019061011591906110e9565b6102e8565b60405161012993929190611192565b60405180910390f35b34801561013e57600080fd5b506101476103e6565b60405161015491906111d8565b60405180910390f35b34801561016957600080fd5b506101726103ec565b60405161017f9190611214565b60405180910390f35b34801561019457600080fd5b506101af60048036038101906101aa919061125b565b610412565b6040516101bc9190611312565b60405180910390f35b6101df60048036038101906101da919061132d565b6106fb565b6040516101ec91906110a2565b60405180910390f35b34801561020157600080fd5b5061020a610718565b005b6102266004803603810190610221919061132d565b610b75565b60405161023391906110a2565b60405180910390f35b6000600454905090565b6000600360009054906101000a900473ffffffffffffffffffffffffffffffffffffffff1673ffffffffffffffffffffffffffffffffffffffff163373ffffffffffffffffffffffffffffffffffffffff16146102d8576040517f08c379a00000000000000000000000000000000000000000000000000000000081526004016102cf906113dd565b60405180910390fd5b8160058190555060019050919050565b60008060008060026000868152602001908152602001600020604051806060016040529081600082015481526020016001820160009054906101000a900473ffffffffffffffffffffffffffffffffffffffff1673ffffffffffffffffffffffffffffffffffffffff1673ffffffffffffffffffffffffffffffffffffffff1681526020016001820160149054906101000a900460f81b7effffffffffffffffffffffffffffffffffffffffffffffffffffffffffffff19167effffffffffffffffffffffffffffffffffffffffffffffffffffffffffffff1916815250509050806000015193508060200151925080604001519150509193909250565b60055481565b600360009054906101000a900473ffffffffffffffffffffffffffffffffffffffff1681565b6000808390506000849050600084600060208110610433576104326113fd565b5b1a60f81b905060008560006020811061044f5761044e6113fd565b5b1a60f81b90506004847effffffffffffffffffffffffffffffffffffffffffffffffffffffffffffff1916901c93506004847effffffffffffffffffffffffffffffffffffffffffffffffffffffffffffff1916901b93506004827effffffffffffffffffffffffffffffffffffffffffffffffffffffffffffff1916901c91506004827effffffffffffffffffffffffffffffffffffffffffffffffffffffffffffff1916901b91506004837effffffffffffffffffffffffffffffffffffffffffffffffffffffffffffff1916901b92506004837effffffffffffffffffffffffffffffffffffffffffffffffffffffffffffff1916901c92506004817effffffffffffffffffffffffffffffffffffffffffffffffffffffffffffff1916901b90506004817effffffffffffffffffffffffffffffffffffffffffffffffffffffffffffff1916901c9050837effffffffffffffffffffffffffffffffffffffffffffffffffffffffffffff1916827effffffffffffffffffffffffffffffffffffffffffffffffffffffffffffff19161480156106335750827effffffffffffffffffffffffffffffffffffffffffffffffffffffffffffff1916817effffffffffffffffffffffffffffffffffffffffffffffffffffffffffffff1916145b156106455760019450505050506106f5565b837effffffffffffffffffffffffffffffffffffffffffffffffffffffffffffff1916827effffffffffffffffffffffffffffffffffffffffffffffffffffffffffffff191614806106da5750827effffffffffffffffffffffffffffffffffffffffffffffffffffffffffffff1916817effffffffffffffffffffffffffffffffffffffffffffffffffffffffffffff1916145b156106ec5760029450505050506106f5565b60009450505050505b92915050565b600061070682610b75565b5061070f610718565b60019050919050565b600080610723610f92565b60008060015494505b600054851015610b675760026000868152602001908152602001600020604051806060016040529081600082015481526020016001820160009054906101000a900473ffffffffffffffffffffffffffffffffffffffff1673ffffffffffffffffffffffffffffffffffffffff1673ffffffffffffffffffffffffffffffffffffffff1681526020016001820160149054906101000a900460f81b7effffffffffffffffffffffffffffffffffffffffffffffffffffffffffffff19167effffffffffffffffffffffffffffffffffffffffffffffffffffffffffffff191681525050925061081e8360000151610c7f565b9150600060028111156108345761083361129b565b5b8260028111156108475761084661129b565b5b1415610a8957600061085c8460000151610ce1565b905061086c846040015182610412565b9150600160028111156108825761088161129b565b5b8260028111156108955761089461129b565b5b141561092c576108bd84602001516611c37937e080006004546108b8919061145b565b610d09565b945060006004819055507f8219079e2d6c1192fb0ff7f78e6faaf5528ad6687e69749205d87bd4b156912b86856020015187876040015185600060208110610908576109076113fd565b5b1a60f81b896000015160405161092396959493929190611510565b60405180910390a15b600060028111156109405761093f61129b565b5b8260028111156109535761095261129b565b5b14156109df576611c37937e0800060046000828254610972919061145b565b925050819055507f3b19d607433249d2ebc766ae82ca3848e9c064f1febb5147bc6e5b21d0adebc586856020015160008760400151856000602081106109bb576109ba6113fd565b5b1a60f81b89600001516040516109d6969594939291906115ac565b60405180910390a15b6002808111156109f2576109f161129b565b5b826002811115610a0557610a0461129b565b5b1415610a8757610a2084602001516611c37937e08000610d09565b94507f72ec2e949e4fad9380f9d5db3e2ed0e71cf22c51d8d66424508bdc761a3f4b0e86856020015187876040015185600060208110610a6357610a626113fd565b5b1a60f81b8960000151604051610a7e96959493929190611510565b60405180910390a15b505b60016002811115610a9d57610a9c61129b565b5b826002811115610ab057610aaf61129b565b5b1415610abb57610b67565b600280811115610ace57610acd61129b565b5b826002811115610ae157610ae061129b565b5b1415610b4a57610afc83602001516611c37937e08000610d09565b93507f59c0185881271a0f53d43e6ab9310091408f9e0ff9ae2512613de800f26b8de48584602001518686604001518760000151604051610b4195949392919061160d565b60405180910390a15b610b5385610ddb565b508480610b5f90611660565b95505061072c565b846001819055505050505050565b60006611c37937e080003414610bc0576040517f08c379a0000000000000000000000000000000000000000000000000000000008152600401610bb7906116f5565b60405180910390fd5b610bc982610e3f565b610c08576040517f08c379a0000000000000000000000000000000000000000000000000000000008152600401610bff90611761565b60405180910390fd5b3373ffffffffffffffffffffffffffffffffffffffff167f100791de9f40bf2d56ffa6dc5597d2fd0b2703ea70bc7548cd74c04f5d215ab76001600054610c4f9190611781565b3485600343610c5e919061145b565b604051610c6e94939291906117b5565b60405180910390a260019050919050565b60008143118015610c9c57508161010043610c9a9190611781565b105b15610caa5760009050610cdc565b814311610cba5760019050610cdc565b61010082610cc8919061145b565b4310610cd75760029050610cdc565b600290505b919050565b6000600660009054906101000a900460ff16610cff57600554610d02565b81405b9050919050565b6000806000905060008184610d1e9190611781565b90508473ffffffffffffffffffffffffffffffffffffffff166108fc829081150290604051600060405180830381858888f19350505050158015610d66573d6000803e3d6000fd5b50600360009054906101000a900473ffffffffffffffffffffffffffffffffffffffff1673ffffffffffffffffffffffffffffffffffffffff166108fc839081150290604051600060405180830381858888f19350505050158015610dcf573d6000803e3d6000fd5b50809250505092915050565b6000600260008381526020019081526020016000206000808201600090556001820160006101000a81549073ffffffffffffffffffffffffffffffffffffffff02191690556001820160146101000a81549060ff0219169055505060019050919050565b6000610e49610f92565b33816020019073ffffffffffffffffffffffffffffffffffffffff16908173ffffffffffffffffffffffffffffffffffffffff1681525050600343610e8e919061145b565b8160000181815250508281604001907effffffffffffffffffffffffffffffffffffffffffffffffffffffffffffff191690817effffffffffffffffffffffffffffffffffffffffffffffffffffffffffffff1916815250508060026000805481526020019081526020016000206000820151816000015560208201518160010160006101000a81548173ffffffffffffffffffffffffffffffffffffffff021916908373ffffffffffffffffffffffffffffffffffffffff16021790555060408201518160010160146101000a81548160ff021916908360f81c0217905550905050600080815480929190610f8390611660565b91905055506001915050919050565b604051806060016040528060008152602001600073ffffffffffffffffffffffffffffffffffffffff16815260200160007effffffffffffffffffffffffffffffffffffffffffffffffffffffffffffff191681525090565b6000819050919050565b610ffe81610feb565b82525050565b60006020820190506110196000830184610ff5565b92915050565b600080fd5b6000819050919050565b61103781611024565b811461104257600080fd5b50565b6000813590506110548161102e565b92915050565b6000602082840312156110705761106f61101f565b5b600061107e84828501611045565b91505092915050565b60008115159050919050565b61109c81611087565b82525050565b60006020820190506110b76000830184611093565b92915050565b6110c681610feb565b81146110d157600080fd5b50565b6000813590506110e3816110bd565b92915050565b6000602082840312156110ff576110fe61101f565b5b600061110d848285016110d4565b91505092915050565b600073ffffffffffffffffffffffffffffffffffffffff82169050919050565b600061114182611116565b9050919050565b61115181611136565b82525050565b60007fff0000000000000000000000000000000000000000000000000000000000000082169050919050565b61118c81611157565b82525050565b60006060820190506111a76000830186610ff5565b6111b46020830185611148565b6111c16040830184611183565b949350505050565b6111d281611024565b82525050565b60006020820190506111ed60008301846111c9565b92915050565b60006111fe82611116565b9050919050565b61120e816111f3565b82525050565b60006020820190506112296000830184611205565b92915050565b61123881611157565b811461124357600080fd5b50565b6000813590506112558161122f565b92915050565b600080604083850312156112725761127161101f565b5b600061128085828601611246565b925050602061129185828601611045565b9150509250929050565b7f4e487b7100000000000000000000000000000000000000000000000000000000600052602160045260246000fd5b600381106112db576112da61129b565b5b50565b60008190506112ec826112ca565b919050565b60006112fc826112de565b9050919050565b61130c816112f1565b82525050565b60006020820190506113276000830184611303565b92915050565b6000602082840312156113435761134261101f565b5b600061135184828501611246565b91505092915050565b600082825260208201905092915050565b7f4f6e6c79206f776e65722063616e207365742074686520616e7377657220666f60008201527f722074657374206d6f6465000000000000000000000000000000000000000000602082015250565b60006113c7602b8361135a565b91506113d28261136b565b604082019050919050565b600060208201905081810360008301526113f6816113ba565b9050919050565b7f4e487b7100000000000000000000000000000000000000000000000000000000600052603260045260246000fd5b7f4e487b7100000000000000000000000000000000000000000000000000000000600052601160045260246000fd5b600061146682610feb565b915061147183610feb565b9250827fffffffffffffffffffffffffffffffffffffffffffffffffffffffffffffffff038211156114a6576114a561142c565b5b828201905092915050565b6000819050919050565b60006114d66114d16114cc84611116565b6114b1565b611116565b9050919050565b60006114e8826114bb565b9050919050565b60006114fa826114dd565b9050919050565b61150a816114ef565b82525050565b600060c0820190506115256000830189610ff5565b6115326020830188611501565b61153f6040830187610ff5565b61154c6060830186611183565b6115596080830185611183565b61156660a0830184610ff5565b979650505050505050565b6000819050919050565b600061159661159161158c84611571565b6114b1565b610feb565b9050919050565b6115a68161157b565b82525050565b600060c0820190506115c16000830189610ff5565b6115ce6020830188611501565b6115db604083018761159d565b6115e86060830186611183565b6115f56080830185611183565b61160260a0830184610ff5565b979650505050505050565b600060a0820190506116226000830188610ff5565b61162f6020830187611501565b61163c6040830186610ff5565b6116496060830185611183565b6116566080830184610ff5565b9695505050505050565b600061166b82610feb565b91507fffffffffffffffffffffffffffffffffffffffffffffffffffffffffffffffff82141561169e5761169d61142c565b5b600182019050919050565b7f4e6f7420656e6f75676820455448000000000000000000000000000000000000600082015250565b60006116df600e8361135a565b91506116ea826116a9565b602082019050919050565b6000602082019050818103600083015261170e816116d2565b9050919050565b7f4661696c20746f206164642061206e65772042657420496e666f000000000000600082015250565b600061174b601a8361135a565b915061175682611715565b602082019050919050565b6000602082019050818103600083015261177a8161173e565b9050919050565b600061178c82610feb565b915061179783610feb565b9250828210156117aa576117a961142c565b5b828203905092915050565b60006080820190506117ca6000830187610ff5565b6117d76020830186610ff5565b6117e46040830185611183565b6117f16060830184610ff5565b9594505050505056fea26469706673582212208a1126c9f9dd2684dee4bbbf2f7d0df6282f807f89ddcbc9c08466e687c5675064736f6c634300080b0033",
  "immutableReferences": {},
  "source": "pragma solidity >=0.4.22 <0.9.0;\r\n\r\ncontract Lottery {\r\n  struct BetInfo {\r\n    uint256 answerBlockNumber;\r\n    address payable bettor; //payable :      .\r\n    bytes1 challenges; // 0Xab..\r\n  }\r\n\r\n//tail   \r\n  uint256 private _tail;\r\n  //   _head     \r\n  uint256 private _head;\r\n  // queue\r\n  mapping(uint256 => BetInfo) private _bets;\r\n\r\n\r\n  //  \r\n  //public :  getter  ,         .\r\n  address payable public owner;\r\n\r\n  //      256  \r\n  uint256 constant internal BLOCK_LIMIT = 256;\r\n  // +3  \r\n  uint256 constant internal BET_BLOCK_INTERVAL = 3;\r\n  //  0.005eth \r\n  uint256 constant internal BET_AMOUNT = 5 * 10 ** 15; \r\n\r\n  // \r\n  uint256 private _pot;\r\n\r\n  bytes32 public answerForTest;\r\n\r\n  bool private mode = false; // false : use answer for test, true : use real blok hash\r\n\r\n  enum BlockStatus {Checkable, NotRevealed, BlockLimitPassed}\r\n  enum BettingResult {Fail, Win, Draw}\r\n\r\n  //\r\n  event BET(uint256 index, address indexed bettor, uint256 amount, bytes1 challenges, uint256 answerBlockNumber);\r\n  event WIN(uint256 index, address bettor, uint256 amount, bytes1 challenges, bytes1 answer, uint256 answerBlockNumber);\r\n  event FAIL(uint256 index, address bettor, uint256 amount, bytes1 challenges, bytes1 answer, uint256 answerBlockNumber);\r\n  event DRAW(uint256 index, address bettor, uint256 amount, bytes1 challenges, bytes1 answer, uint256 answerBlockNumber);\r\n  event REFUND(uint256 index, address bettor, uint256 amount, bytes1 challenges, uint256 answerBlockNumber);\r\n\r\n\r\n//   ,,  ,    .\r\n  constructor() public {\r\n    owner = payable(msg.sender);\r\n    //   ,   .\r\n    // msg.sender :     \r\n  }\r\n\r\n  //   \r\n  // function getSomeValue() public pure returns (uint256 value){\r\n  //   return 5;\r\n  // }\r\n\r\n// view :      \r\n  function getPot() public view returns (uint256 pot){\r\n    return _pot;\r\n  }\r\n  \r\n  // /**\r\n  //    * @dev    .  0.005 ETH  ,  1 byte  .\r\n  //    *      distribute  .\r\n  //    * @param challenges   \r\n  //    * @return     bool \r\n  //    */\r\n  function betAndDistribute(bytes1 challenges) public payable returns (bool result){\r\n    bet(challenges);\r\n    distribute();\r\n    return true;\r\n  }\r\n\r\n  \r\n  // /**\r\n  // *  \r\n  // *\r\n  // * @dev  .  0.005 ETH  ,  1 byte  .\r\n  // *      distribute  .\r\n  // * @param challenges   \r\n  // * @return     bool \r\n  // *\r\n  // */\r\n  function bet(bytes1 challenges) public payable returns (bool result){\r\n    // Check the proper ether is sent\r\n    require(msg.value == BET_AMOUNT, \"Not enough ETH\");\r\n    // Push bet to the queue\r\n    require(pushBet(challenges),\"Fail to add a new Bet Info\");\r\n    // Emit event\r\n    emit BET(_tail - 1, msg.sender, msg.value, challenges, block.number + BET_BLOCK_INTERVAL);\r\n\r\n    return true;\r\n  }\r\n    // Save the bet to the queue\r\n\r\n  // Distribute : \r\n  /**\r\n    * @dev      .\r\n    *   :  ,   :  ,   or    :   \r\n    */\r\n  function distribute() public {\r\n    // head 3 4 5 6 7 8 9 10 11 12 tail\r\n    uint256 cur;\r\n    uint256 transferAmount;\r\n\r\n    BetInfo memory b;\r\n    BlockStatus currentBlockStatus;\r\n    BettingResult currentBettingResult;\r\n\r\n    // head  tail   :    \r\n    for (cur = _head; cur < _tail; cur++) {\r\n      b = _bets[cur];\r\n      currentBlockStatus = getBlockStatus(b.answerBlockNumber);\r\n     \r\n      // Checkable : block.number > AnswerBlockNumber && block.number - BLOCK_LIMIT < AnswerBlockNumber 1\r\n      //       +    ,\r\n      if(currentBlockStatus == BlockStatus.Checkable){\r\n        bytes32 answerBlcokHash = getAnswerBlockHash(b.answerBlockNumber);\r\n        //    :    \r\n        currentBettingResult = isMatch(b.challenges, answerBlcokHash);\r\n        // if win, bettor gets pot\r\n        if(currentBettingResult == BettingResult.Win){\r\n\r\n          // transfer pot\r\n          //      \r\n          transferAmount = transferAfterPayingFee(b.bettor, _pot + BET_AMOUNT);\r\n\r\n          // pot = 0\r\n          _pot = 0;\r\n\r\n          // emit WIN\r\n          emit WIN(cur, b.bettor, transferAmount, b.challenges, answerBlcokHash[0], b.answerBlockNumber);\r\n        }\r\n\r\n        // if fail, bettor's money goes pot\r\n        if(currentBettingResult == BettingResult.Fail){\r\n          // pot + BET_AMOUNT\r\n          _pot += BET_AMOUNT;\r\n          // emit FAIL\r\n          emit FAIL(cur, b.bettor, 0, b.challenges, answerBlcokHash[0], b.answerBlockNumber);\r\n        }\r\n\r\n        // if draw, refund bettor's money\r\n        if(currentBettingResult == BettingResult.Draw){\r\n          // transfer only BET_AMOUNT\r\n          transferAmount = transferAfterPayingFee(b.bettor, BET_AMOUNT);\r\n          // emit DRAW\r\n        emit DRAW(cur, b.bettor, transferAmount, b.challenges, answerBlcokHash[0], b.answerBlockNumber);\r\n\r\n        }\r\n\r\n        \r\n      }\r\n\r\n      //      :         ,       \r\n      // Not Revealed :      : block.number <= AnswerBlockNuumber 2\r\n      if(currentBlockStatus == BlockStatus.NotRevealed){\r\n        break;\r\n      }\r\n\r\n      // Block Limit Passed :        : block.number >= AnswerBlockNumber + BLOCK_LIMIT 3\r\n      if(currentBlockStatus == BlockStatus.BlockLimitPassed){\r\n        // refund\r\n        transferAmount = transferAfterPayingFee(b.bettor, BET_AMOUNT);\r\n        // emit REFUND\r\n        emit REFUND(cur, b.bettor, transferAmount, b.challenges, b.answerBlockNumber);\r\n\r\n      }\r\n      popBet(cur);\r\n    }\r\n    // .\r\n    _head = cur;\r\n  }\r\n\r\n//   .\r\n  function transferAfterPayingFee(address payable addr, uint256 amount) internal returns (uint256){\r\n    //\r\n    //uint256 fee = amount / 100;\r\n    //   0\r\n    uint256 fee = 0;\r\n    uint256 amountWithoutFee = amount - fee;\r\n\r\n    // transfer to addr\r\n    addr.transfer(amountWithoutFee);\r\n\r\n    // transfet to owner\r\n    owner.transfer(fee);\r\n\r\n    return amountWithoutFee;\r\n  }\r\n\r\n  function setAnswerForTest(bytes32 answer) public returns (bool result) {\r\n      require(msg.sender == owner, \"Only owner can set the answer for test mode\");\r\n      answerForTest = answer;\r\n      return true;\r\n  }\r\n\r\nfunction getAnswerBlockHash(uint256 answerBlockNumber) internal view returns (bytes32 answer){\r\n  return mode ? blockhash(answerBlockNumber) : answerForTest;\r\n}\r\n\r\n  // /**\r\n  // * @dev   .\r\n  // * @param challenges \r\n  // * @param answer \r\n  // * @return   \r\n  // */\r\n  function isMatch(bytes1 challenges, bytes32 answer) public pure returns (BettingResult){\r\n    // challenges 0xab\r\n    // answer 0xab......ff 32 bytes\r\n\r\n    bytes1 c1 = challenges;\r\n    bytes1 c2 = challenges;\r\n\r\n    bytes1 a1 = answer[0];\r\n    bytes1 a2 = answer[0];\r\n\r\n    // Get first number : shift\r\n    c1 = c1 >> 4; // 0xab -> 0x0a\r\n    c1 = c1 << 4; // 0x0a -> 0xa0\r\n\r\n    a1 = a1 >> 4;\r\n    a1 = a1 << 4;\r\n\r\n    // Get Second number\r\n    c2 = c2 << 4; // 0xab -> 0xb0\r\n    c2 = c2 >> 4; // 0xb0 -> 0x0b\r\n\r\n    a2 = a2 << 4;\r\n    a2 = a2 >> 4;\r\n\r\n    if(a1 == c1 && a2 == c2){\r\n      return BettingResult.Win;\r\n    }\r\n\r\n    if(a1 == c1 || a2 == c2){\r\n      return BettingResult.Draw;\r\n    }\r\n\r\n    return BettingResult.Fail;\r\n  }\r\n    \r\n\r\n  function getBlockStatus(uint256 answerBlockNumber) internal view returns (BlockStatus){\r\n    if(block.number > answerBlockNumber && block.number - BLOCK_LIMIT < answerBlockNumber) {\r\n      return BlockStatus.Checkable;\r\n    }\r\n\r\n    if(block.number <= answerBlockNumber){\r\n      return BlockStatus.NotRevealed;\r\n    }\r\n\r\n    if(block.number >= answerBlockNumber + BLOCK_LIMIT){\r\n      return BlockStatus.BlockLimitPassed;\r\n    }\r\n    //3      ,      ,,,\r\n    return BlockStatus.BlockLimitPassed;\r\n  }\r\n  \r\n  //getter\r\n  function getBetInfo(uint256 index) public view returns (uint256 answerBlockNumber, address bettor, bytes1 challenges){\r\n    BetInfo memory b = _bets[index];\r\n    answerBlockNumber = b.answerBlockNumber;\r\n    bettor = b.bettor;\r\n    challenges = b.challenges;\r\n  }\r\n\r\n  //queue  puch pop  \r\n  function pushBet(bytes1 challenges) internal returns (bool) {\r\n    BetInfo memory b;\r\n    //  ,    payable .\r\n    b.bettor = payable(msg.sender); // 20 bytes\r\n    //block.number :      \r\n    b.answerBlockNumber = block.number + BET_BLOCK_INTERVAL; // 32 bytes  20000 gas\r\n    b.challenges = challenges; // byte  // 20000gas \r\n    \r\n    _bets[_tail] = b;\r\n    _tail++; // 32 bytes   // 20000gas  -> 5000 gas \r\n\r\n    return true;\r\n  }\r\n\r\n  function popBet(uint256 index) internal returns (bool){\r\n    //       .\r\n    //   delete , gas  .         . state database    \r\n    delete _bets[index];\r\n    return true;\r\n  }\r\n} ",
  "sourcePath": "C:\\Users\\coco\\Desktop\\coco\\studying_solidity\\lotteryDapp\\contracts\\Lottery.sol",
  "compiler": {
    "name": "solc",
    "version": "0.8.11+commit.d7f03943.Emscripten.clang"
  },
  "schemaVersion": "3.4.4",
  "updatedAt": "2022-02-16T06:52:04.655Z",
  "networkType": "ethereum",
  "devdoc": {
    "kind": "dev",
    "methods": {
      "distribute()": {
        "details": "     .   :  ,   :  ,   or    :   "
      }
    },
    "version": 1
  },
  "userdoc": {
    "kind": "user",
    "methods": {},
    "version": 1
  }
}