{
  "contractName": "Lottery",
  "abi": [
    {
      "inputs": [],
      "stateMutability": "nonpayable",
      "type": "constructor"
    },
    {
      "anonymous": false,
      "inputs": [
        {
          "indexed": false,
          "internalType": "uint256",
          "name": "index",
          "type": "uint256"
        },
        {
          "indexed": false,
          "internalType": "address",
          "name": "bettor",
          "type": "address"
        },
        {
          "indexed": false,
          "internalType": "uint256",
          "name": "amount",
          "type": "uint256"
        },
        {
          "indexed": false,
          "internalType": "bytes1",
          "name": "challenges",
          "type": "bytes1"
        },
        {
          "indexed": false,
          "internalType": "uint256",
          "name": "answerBlockNumber",
          "type": "uint256"
        }
      ],
      "name": "BET",
      "type": "event"
    },
    {
      "inputs": [],
      "name": "owner",
      "outputs": [
        {
          "internalType": "address",
          "name": "",
          "type": "address"
        }
      ],
      "stateMutability": "view",
      "type": "function"
    },
    {
      "inputs": [],
      "name": "getPot",
      "outputs": [
        {
          "internalType": "uint256",
          "name": "pot",
          "type": "uint256"
        }
      ],
      "stateMutability": "view",
      "type": "function"
    },
    {
      "inputs": [
        {
          "internalType": "bytes1",
          "name": "challenges",
          "type": "bytes1"
        }
      ],
      "name": "bet",
      "outputs": [
        {
          "internalType": "bool",
          "name": "result",
          "type": "bool"
        }
      ],
      "stateMutability": "payable",
      "type": "function"
    },
    {
      "inputs": [],
      "name": "distribute",
      "outputs": [],
      "stateMutability": "nonpayable",
      "type": "function"
    },
    {
      "inputs": [
        {
          "internalType": "bytes1",
          "name": "challenges",
          "type": "bytes1"
        },
        {
          "internalType": "bytes32",
          "name": "answer",
          "type": "bytes32"
        }
      ],
      "name": "isMatch",
      "outputs": [
        {
          "internalType": "enum Lottery.BettingResult",
          "name": "",
          "type": "uint8"
        }
      ],
      "stateMutability": "pure",
      "type": "function"
    },
    {
      "inputs": [
        {
          "internalType": "uint256",
          "name": "index",
          "type": "uint256"
        }
      ],
      "name": "getBetInfo",
      "outputs": [
        {
          "internalType": "uint256",
          "name": "answerBlockNumber",
          "type": "uint256"
        },
        {
          "internalType": "address",
          "name": "bettor",
          "type": "address"
        },
        {
          "internalType": "bytes1",
          "name": "challenges",
          "type": "bytes1"
        }
      ],
      "stateMutability": "view",
      "type": "function"
    }
  ],
  "bytecode": "0x608060405234801561001057600080fd5b5033600360006101000a81548173ffffffffffffffffffffffffffffffffffffffff021916908373ffffffffffffffffffffffffffffffffffffffff160217905550611036806100616000396000f3fe6080604052600436106100555760003560e01c8063403c9fa81461005a57806379141f80146100855780638da5cb5b146100c457806399a167d7146100ef578063e4fc6b6d1461012c578063f4b46f5b14610143575b600080fd5b34801561006657600080fd5b5061006f610173565b60405161007c9190610ab5565b60405180910390f35b34801561009157600080fd5b506100ac60048036038101906100a79190610b01565b61017d565b6040516100bb93929190610baa565b60405180910390f35b3480156100d057600080fd5b506100d961027b565b6040516100e69190610be1565b60405180910390f35b3480156100fb57600080fd5b5061011660048036038101906101119190610c5e565b6102a1565b6040516101239190610d15565b60405180910390f35b34801561013857600080fd5b5061014161058a565b005b61015d60048036038101906101589190610d30565b610735565b60405161016a9190610d78565b60405180910390f35b6000600454905090565b60008060008060026000868152602001908152602001600020604051806060016040529081600082015481526020016001820160009054906101000a900473ffffffffffffffffffffffffffffffffffffffff1673ffffffffffffffffffffffffffffffffffffffff1673ffffffffffffffffffffffffffffffffffffffff1681526020016001820160149054906101000a900460f81b7effffffffffffffffffffffffffffffffffffffffffffffffffffffffffffff19167effffffffffffffffffffffffffffffffffffffffffffffffffffffffffffff1916815250509050806000015193508060200151925080604001519150509193909250565b600360009054906101000a900473ffffffffffffffffffffffffffffffffffffffff1681565b60008083905060008490506000846000602081106102c2576102c1610d93565b5b1a60f81b90506000856000602081106102de576102dd610d93565b5b1a60f81b90506004847effffffffffffffffffffffffffffffffffffffffffffffffffffffffffffff1916901c93506004847effffffffffffffffffffffffffffffffffffffffffffffffffffffffffffff1916901b93506004827effffffffffffffffffffffffffffffffffffffffffffffffffffffffffffff1916901c91506004827effffffffffffffffffffffffffffffffffffffffffffffffffffffffffffff1916901b91506004837effffffffffffffffffffffffffffffffffffffffffffffffffffffffffffff1916901b92506004837effffffffffffffffffffffffffffffffffffffffffffffffffffffffffffff1916901c92506004817effffffffffffffffffffffffffffffffffffffffffffffffffffffffffffff1916901b90506004817effffffffffffffffffffffffffffffffffffffffffffffffffffffffffffff1916901c9050837effffffffffffffffffffffffffffffffffffffffffffffffffffffffffffff1916827effffffffffffffffffffffffffffffffffffffffffffffffffffffffffffff19161480156104c25750827effffffffffffffffffffffffffffffffffffffffffffffffffffffffffffff1916817effffffffffffffffffffffffffffffffffffffffffffffffffffffffffffff1916145b156104d4576001945050505050610584565b837effffffffffffffffffffffffffffffffffffffffffffffffffffffffffffff1916827effffffffffffffffffffffffffffffffffffffffffffffffffffffffffffff191614806105695750827effffffffffffffffffffffffffffffffffffffffffffffffffffffffffffff1916817effffffffffffffffffffffffffffffffffffffffffffffffffffffffffffff1916145b1561057b576002945050505050610584565b60009450505050505b92915050565b6000610594610a43565b600060015492505b6000548310156107305760026000848152602001908152602001600020604051806060016040529081600082015481526020016001820160009054906101000a900473ffffffffffffffffffffffffffffffffffffffff1673ffffffffffffffffffffffffffffffffffffffff1673ffffffffffffffffffffffffffffffffffffffff1681526020016001820160149054906101000a900460f81b7effffffffffffffffffffffffffffffffffffffffffffffffffffffffffffff19167effffffffffffffffffffffffffffffffffffffffffffffffffffffffffffff191681525050915061068e826000015161082a565b9050600060028111156106a4576106a3610c9e565b5b8160028111156106b7576106b6610c9e565b5b5050600160028111156106cd576106cc610c9e565b5b8160028111156106e0576106df610c9e565b5b14156106eb57610730565b6002808111156106fe576106fd610c9e565b5b81600281111561071157610710610c9e565b5b505061071c8361088c565b50828061072890610df1565b93505061059c565b505050565b60006611c37937e080003414610780576040517f08c379a000000000000000000000000000000000000000000000000000000000815260040161077790610e97565b60405180910390fd5b610789826108f0565b6107c8576040517f08c379a00000000000000000000000000000000000000000000000000000000081526004016107bf90610f03565b60405180910390fd5b7f100791de9f40bf2d56ffa6dc5597d2fd0b2703ea70bc7548cd74c04f5d215ab760016000546107f89190610f23565b3334856003436108089190610f57565b604051610819959493929190610fad565b60405180910390a160019050919050565b60008143118015610847575081610100436108459190610f23565b105b156108555760009050610887565b8143116108655760019050610887565b610100826108739190610f57565b43106108825760029050610887565b600290505b919050565b6000600260008381526020019081526020016000206000808201600090556001820160006101000a81549073ffffffffffffffffffffffffffffffffffffffff02191690556001820160146101000a81549060ff0219169055505060019050919050565b60006108fa610a43565b33816020019073ffffffffffffffffffffffffffffffffffffffff16908173ffffffffffffffffffffffffffffffffffffffff168152505060034361093f9190610f57565b8160000181815250508281604001907effffffffffffffffffffffffffffffffffffffffffffffffffffffffffffff191690817effffffffffffffffffffffffffffffffffffffffffffffffffffffffffffff1916815250508060026000805481526020019081526020016000206000820151816000015560208201518160010160006101000a81548173ffffffffffffffffffffffffffffffffffffffff021916908373ffffffffffffffffffffffffffffffffffffffff16021790555060408201518160010160146101000a81548160ff021916908360f81c0217905550905050600080815480929190610a3490610df1565b91905055506001915050919050565b604051806060016040528060008152602001600073ffffffffffffffffffffffffffffffffffffffff16815260200160007effffffffffffffffffffffffffffffffffffffffffffffffffffffffffffff191681525090565b6000819050919050565b610aaf81610a9c565b82525050565b6000602082019050610aca6000830184610aa6565b92915050565b600080fd5b610ade81610a9c565b8114610ae957600080fd5b50565b600081359050610afb81610ad5565b92915050565b600060208284031215610b1757610b16610ad0565b5b6000610b2584828501610aec565b91505092915050565b600073ffffffffffffffffffffffffffffffffffffffff82169050919050565b6000610b5982610b2e565b9050919050565b610b6981610b4e565b82525050565b60007fff0000000000000000000000000000000000000000000000000000000000000082169050919050565b610ba481610b6f565b82525050565b6000606082019050610bbf6000830186610aa6565b610bcc6020830185610b60565b610bd96040830184610b9b565b949350505050565b6000602082019050610bf66000830184610b60565b92915050565b610c0581610b6f565b8114610c1057600080fd5b50565b600081359050610c2281610bfc565b92915050565b6000819050919050565b610c3b81610c28565b8114610c4657600080fd5b50565b600081359050610c5881610c32565b92915050565b60008060408385031215610c7557610c74610ad0565b5b6000610c8385828601610c13565b9250506020610c9485828601610c49565b9150509250929050565b7f4e487b7100000000000000000000000000000000000000000000000000000000600052602160045260246000fd5b60038110610cde57610cdd610c9e565b5b50565b6000819050610cef82610ccd565b919050565b6000610cff82610ce1565b9050919050565b610d0f81610cf4565b82525050565b6000602082019050610d2a6000830184610d06565b92915050565b600060208284031215610d4657610d45610ad0565b5b6000610d5484828501610c13565b91505092915050565b60008115159050919050565b610d7281610d5d565b82525050565b6000602082019050610d8d6000830184610d69565b92915050565b7f4e487b7100000000000000000000000000000000000000000000000000000000600052603260045260246000fd5b7f4e487b7100000000000000000000000000000000000000000000000000000000600052601160045260246000fd5b6000610dfc82610a9c565b91507fffffffffffffffffffffffffffffffffffffffffffffffffffffffffffffffff821415610e2f57610e2e610dc2565b5b600182019050919050565b600082825260208201905092915050565b7f6e6f7420656e6f75676820455448000000000000000000000000000000000000600082015250565b6000610e81600e83610e3a565b9150610e8c82610e4b565b602082019050919050565b60006020820190508181036000830152610eb081610e74565b9050919050565b7f4661696c20746f206164642061206e65772042657420496e666f000000000000600082015250565b6000610eed601a83610e3a565b9150610ef882610eb7565b602082019050919050565b60006020820190508181036000830152610f1c81610ee0565b9050919050565b6000610f2e82610a9c565b9150610f3983610a9c565b925082821015610f4c57610f4b610dc2565b5b828203905092915050565b6000610f6282610a9c565b9150610f6d83610a9c565b9250827fffffffffffffffffffffffffffffffffffffffffffffffffffffffffffffffff03821115610fa257610fa1610dc2565b5b828201905092915050565b600060a082019050610fc26000830188610aa6565b610fcf6020830187610b60565b610fdc6040830186610aa6565b610fe96060830185610b9b565b610ff66080830184610aa6565b969550505050505056fea2646970667358221220f03d03b464e1c4215268d4301f214498e88b049c9e91e7edd0a8d8840a2229c964736f6c634300080b0033",
  "immutableReferences": {},
  "source": "pragma solidity >=0.4.22 <0.9.0;\r\n\r\ncontract Lottery {\r\n  struct BetInfo {\r\n    uint256 answerBlockNumber;\r\n    address payable bettor; //payable :      .\r\n    bytes1 challenges; // 0Xab..\r\n  }\r\n\r\n//tail   \r\n  uint256 private _tail;\r\n  //   _head     \r\n  uint256 private _head;\r\n  // queue\r\n  mapping(uint256 => BetInfo) private _bets;\r\n\r\n\r\n  //  \r\n  //public :  getter  ,         .\r\n  address public owner;\r\n\r\n  //      256  \r\n  uint256 constant internal BLOCK_LIMIT = 256;\r\n  // +3  \r\n  uint256 constant internal BET_BLOCK_INTERVAL = 3;\r\n  //  0.005eth \r\n  uint256 constant internal BET_AMOUNT = 5 * 10 ** 15; \r\n\r\n  // \r\n  uint256 private _pot;\r\n\r\n  enum BlockStatus {Checkable, NotRevealed, BlockLimitPassed}\r\n  enum BettingResult {Fail, Win, Draw}\r\n\r\n  //\r\n  event BET(uint256 index, address bettor, uint256 amount, bytes1 challenges, uint256 answerBlockNumber);\r\n\r\n//   ,,  ,    .\r\n  constructor() public {\r\n    owner = msg.sender;\r\n    //   ,   .\r\n    // msg.sender :     \r\n  }\r\n\r\n  //   \r\n  // function getSomeValue() public pure returns (uint256 value){\r\n  //   return 5;\r\n  // }\r\n\r\n// view :      \r\n  function getPot() public view returns (uint256 pot){\r\n    return _pot;\r\n  }\r\n\r\n  \r\n  // /**\r\n  // *  \r\n  // *\r\n  // * @dev  .  0.005 ETH  ,  1 byte  .\r\n  // *      distribute  .\r\n  // * @param challenges   \r\n  // * @return     bool \r\n  // *\r\n  // */\r\n  function bet(bytes1 challenges) public payable returns (bool result){\r\n    // Check the proper ether is sent\r\n    require(msg.value == BET_AMOUNT, \"not enough ETH\");\r\n    // Push bet to the queue\r\n    require(pushBet(challenges),\"Fail to add a new Bet Info\");\r\n    // Emit event\r\n    emit BET(_tail - 1, msg.sender, msg.value, challenges, block.number + BET_BLOCK_INTERVAL);\r\n\r\n    return true;\r\n  }\r\n    // Save the bet to the queue\r\n\r\n  // Distribute : \r\n  function distribute() public {\r\n    // head 3 4 5 6 7 8 9 10 11 12 tail\r\n    uint256 cur;\r\n    BetInfo memory b;\r\n    BlockStatus currentBlockStatus;\r\n\r\n    // head  tail   :    \r\n    for (cur = _head; cur < _tail; cur++) {\r\n      b = _bets[cur];\r\n      currentBlockStatus = getBlockStatus(b.answerBlockNumber);\r\n     \r\n      // Checkable : block.number > AnswerBlockNumber && block.number - BLOCK_LIMIT < AnswerBlockNumber 1\r\n      //       +    ,\r\n      if(currentBlockStatus == BlockStatus.Checkable){\r\n        // if win, bettor gets pot\r\n\r\n        // if fail, bettor's money goes pot\r\n\r\n        // if draw, refund bettor's money\r\n        \r\n      }\r\n\r\n      //      :         ,       \r\n      // Not Revealed :      : block.number <= AnswerBlockNuumber 2\r\n      if(currentBlockStatus == BlockStatus.NotRevealed){\r\n        break;\r\n      }\r\n\r\n      // Block Limit Passed :        : block.number >= AnswerBlockNumber + BLOCK_LIMIT 3\r\n      if(currentBlockStatus == BlockStatus.BlockLimitPassed){\r\n        // refund\r\n        // emit refund\r\n      }\r\n      popBet(cur);\r\n    }\r\n  }\r\n\r\n  // /**\r\n  // * @dev   .\r\n  // * @param challenges \r\n  // * @param answer \r\n  // * @return   \r\n  // */\r\n  function isMatch(bytes1 challenges, bytes32 answer) public pure returns (BettingResult){\r\n    // challenges 0xab\r\n    // answer 0xab......ff 32 bytes\r\n\r\n    bytes1 c1 = challenges;\r\n    bytes1 c2 = challenges;\r\n\r\n    bytes1 a1 = answer[0];\r\n    bytes1 a2 = answer[0];\r\n\r\n    // Get first number : shift\r\n    c1 = c1 >> 4; // 0xab -> 0x0a\r\n    c1 = c1 << 4; // 0x0a -> 0xa0\r\n\r\n    a1 = a1 >> 4;\r\n    a1 = a1 << 4;\r\n\r\n    // Get Second number\r\n    c2 = c2 << 4; // 0xab -> 0xb0\r\n    c2 = c2 >> 4; // 0xb0 -> 0x0b\r\n\r\n    a2 = a2 << 4;\r\n    a2 = a2 >> 4;\r\n\r\n    if(a1 == c1 && a2 == c2){\r\n      return BettingResult.Win;\r\n    }\r\n\r\n    if(a1 == c1 || a2 == c2){\r\n      return BettingResult.Draw;\r\n    }\r\n\r\n    return BettingResult.Fail;\r\n  }\r\n    \r\n\r\n  function getBlockStatus(uint256 answerBlockNumber) internal view returns (BlockStatus){\r\n    if(block.number > answerBlockNumber && block.number - BLOCK_LIMIT < answerBlockNumber) {\r\n      return BlockStatus.Checkable;\r\n    }\r\n\r\n    if(block.number <= answerBlockNumber){\r\n      return BlockStatus.NotRevealed;\r\n    }\r\n\r\n    if(block.number >= answerBlockNumber + BLOCK_LIMIT){\r\n      return BlockStatus.BlockLimitPassed;\r\n    }\r\n    //3      ,      ,,,\r\n    return BlockStatus.BlockLimitPassed;\r\n  }\r\n  \r\n  //getter\r\n  function getBetInfo(uint256 index) public view returns (uint256 answerBlockNumber, address bettor, bytes1 challenges){\r\n    BetInfo memory b = _bets[index];\r\n    answerBlockNumber = b.answerBlockNumber;\r\n    bettor = b.bettor;\r\n    challenges = b.challenges;\r\n  }\r\n\r\n  //queue  puch pop  \r\n  function pushBet(bytes1 challenges) internal returns (bool) {\r\n    BetInfo memory b;\r\n    //  ,    payable .\r\n    b.bettor = payable(msg.sender); // 20 bytes\r\n    //block.number :      \r\n    b.answerBlockNumber = block.number + BET_BLOCK_INTERVAL; // 32 bytes  20000 gas\r\n    b.challenges = challenges; // byte  // 20000gas \r\n    \r\n    _bets[_tail] = b;\r\n    _tail++; // 32 bytes   // 20000gas  -> 5000 gas \r\n\r\n    return true;\r\n  }\r\n\r\n  function popBet(uint256 index) internal returns (bool){\r\n    //       .\r\n    //   delete , gas  .         . state database    \r\n    delete _bets[index];\r\n    return true;\r\n  }\r\n} ",
  "sourcePath": "C:\\Users\\coco\\Desktop\\coco\\studying_solidity\\lotteryDapp\\contracts\\Lottery.sol",
  "compiler": {
    "name": "solc",
    "version": "0.8.11+commit.d7f03943.Emscripten.clang"
  },
  "schemaVersion": "3.4.4",
  "updatedAt": "2022-02-15T13:25:22.745Z",
  "devdoc": {
    "kind": "dev",
    "methods": {},
    "version": 1
  },
  "userdoc": {
    "kind": "user",
    "methods": {},
    "version": 1
  }
}